{
  "_format": "hh3-artifact-1",
  "contractName": "VoltEscrow",
  "sourceName": "contracts/VoltEscrow.sol",
  "abi": [
    {
      "inputs": [],
      "stateMutability": "nonpayable",
      "type": "constructor"
    },
    {
      "inputs": [],
      "name": "HtsTransferFailed",
      "type": "error"
    },
    {
      "inputs": [],
      "name": "InvalidAddress",
      "type": "error"
    },
    {
      "inputs": [],
      "name": "InvalidAmount",
      "type": "error"
    },
    {
      "inputs": [],
      "name": "NotAuthorized",
      "type": "error"
    },
    {
      "inputs": [],
      "name": "OutOfRange",
      "type": "error"
    },
    {
      "anonymous": false,
      "inputs": [
        {
          "indexed": true,
          "internalType": "address",
          "name": "investor",
          "type": "address"
        },
        {
          "indexed": true,
          "internalType": "address",
          "name": "iToken",
          "type": "address"
        },
        {
          "indexed": false,
          "internalType": "uint256",
          "name": "amount",
          "type": "uint256"
        }
      ],
      "name": "ITokenReleased",
      "type": "event"
    },
    {
      "anonymous": false,
      "inputs": [
        {
          "indexed": true,
          "internalType": "address",
          "name": "investor",
          "type": "address"
        },
        {
          "indexed": true,
          "internalType": "address",
          "name": "iToken",
          "type": "address"
        },
        {
          "indexed": false,
          "internalType": "uint256",
          "name": "vusdAmount",
          "type": "uint256"
        },
        {
          "indexed": false,
          "internalType": "uint256",
          "name": "time",
          "type": "uint256"
        }
      ],
      "name": "InvestmentRecorded",
      "type": "event"
    },
    {
      "anonymous": false,
      "inputs": [
        {
          "indexed": true,
          "internalType": "address",
          "name": "oldOwner",
          "type": "address"
        },
        {
          "indexed": true,
          "internalType": "address",
          "name": "newOwner",
          "type": "address"
        }
      ],
      "name": "OwnerUpdated",
      "type": "event"
    },
    {
      "anonymous": false,
      "inputs": [
        {
          "indexed": true,
          "internalType": "address",
          "name": "investor",
          "type": "address"
        },
        {
          "indexed": false,
          "internalType": "uint256",
          "name": "yieldAmount",
          "type": "uint256"
        },
        {
          "indexed": false,
          "internalType": "uint256",
          "name": "time",
          "type": "uint256"
        }
      ],
      "name": "Settled",
      "type": "event"
    },
    {
      "anonymous": false,
      "inputs": [
        {
          "indexed": true,
          "internalType": "address",
          "name": "token",
          "type": "address"
        }
      ],
      "name": "TokenAssociated",
      "type": "event"
    },
    {
      "anonymous": false,
      "inputs": [
        {
          "indexed": true,
          "internalType": "address",
          "name": "investor",
          "type": "address"
        },
        {
          "indexed": false,
          "internalType": "uint256",
          "name": "amount",
          "type": "uint256"
        }
      ],
      "name": "VUSDDeposited",
      "type": "event"
    },
    {
      "anonymous": false,
      "inputs": [
        {
          "indexed": true,
          "internalType": "address",
          "name": "vusd",
          "type": "address"
        }
      ],
      "name": "VusdAssociated",
      "type": "event"
    },
    {
      "anonymous": false,
      "inputs": [
        {
          "indexed": true,
          "internalType": "address",
          "name": "oldToken",
          "type": "address"
        },
        {
          "indexed": true,
          "internalType": "address",
          "name": "newToken",
          "type": "address"
        }
      ],
      "name": "VusdTokenUpdated",
      "type": "event"
    },
    {
      "inputs": [],
      "name": "HTS",
      "outputs": [
        {
          "internalType": "address",
          "name": "",
          "type": "address"
        }
      ],
      "stateMutability": "view",
      "type": "function"
    },
    {
      "inputs": [],
      "name": "associateVusd",
      "outputs": [],
      "stateMutability": "nonpayable",
      "type": "function"
    },
    {
      "inputs": [
        {
          "internalType": "address",
          "name": "token",
          "type": "address"
        }
      ],
      "name": "associateWithToken",
      "outputs": [],
      "stateMutability": "nonpayable",
      "type": "function"
    },
    {
      "inputs": [
        {
          "internalType": "uint256",
          "name": "amount",
          "type": "uint256"
        }
      ],
      "name": "depositVUSD",
      "outputs": [],
      "stateMutability": "nonpayable",
      "type": "function"
    },
    {
      "inputs": [
        {
          "internalType": "address",
          "name": "investor",
          "type": "address"
        }
      ],
      "name": "getInvestments",
      "outputs": [
        {
          "components": [
            {
              "internalType": "address",
              "name": "investor",
              "type": "address"
            },
            {
              "internalType": "address",
              "name": "iToken",
              "type": "address"
            },
            {
              "internalType": "uint256",
              "name": "vusdAmount",
              "type": "uint256"
            },
            {
              "internalType": "uint256",
              "name": "timestamp",
              "type": "uint256"
            },
            {
              "internalType": "bool",
              "name": "settled",
              "type": "bool"
            }
          ],
          "internalType": "struct VoltEscrow.Investment[]",
          "name": "",
          "type": "tuple[]"
        }
      ],
      "stateMutability": "view",
      "type": "function"
    },
    {
      "inputs": [
        {
          "internalType": "address",
          "name": "investor",
          "type": "address"
        }
      ],
      "name": "investmentsLength",
      "outputs": [
        {
          "internalType": "uint256",
          "name": "",
          "type": "uint256"
        }
      ],
      "stateMutability": "view",
      "type": "function"
    },
    {
      "inputs": [],
      "name": "owner",
      "outputs": [
        {
          "internalType": "address",
          "name": "",
          "type": "address"
        }
      ],
      "stateMutability": "view",
      "type": "function"
    },
    {
      "inputs": [
        {
          "internalType": "address",
          "name": "investor",
          "type": "address"
        },
        {
          "internalType": "address",
          "name": "iToken",
          "type": "address"
        },
        {
          "internalType": "uint256",
          "name": "vusdAmount",
          "type": "uint256"
        }
      ],
      "name": "recordInvestment",
      "outputs": [],
      "stateMutability": "nonpayable",
      "type": "function"
    },
    {
      "inputs": [
        {
          "internalType": "address",
          "name": "investor",
          "type": "address"
        },
        {
          "internalType": "address",
          "name": "iToken",
          "type": "address"
        },
        {
          "internalType": "uint256",
          "name": "amount",
          "type": "uint256"
        }
      ],
      "name": "releaseIToken",
      "outputs": [],
      "stateMutability": "nonpayable",
      "type": "function"
    },
    {
      "inputs": [
        {
          "internalType": "address",
          "name": "investor",
          "type": "address"
        },
        {
          "internalType": "uint256",
          "name": "index",
          "type": "uint256"
        },
        {
          "internalType": "uint256",
          "name": "yieldAmount",
          "type": "uint256"
        }
      ],
      "name": "settleInvestment",
      "outputs": [],
      "stateMutability": "nonpayable",
      "type": "function"
    },
    {
      "inputs": [
        {
          "internalType": "address",
          "name": "newOwner",
          "type": "address"
        }
      ],
      "name": "updateOwner",
      "outputs": [],
      "stateMutability": "nonpayable",
      "type": "function"
    },
    {
      "inputs": [
        {
          "internalType": "address",
          "name": "newVusd",
          "type": "address"
        }
      ],
      "name": "updateVusdToken",
      "outputs": [],
      "stateMutability": "nonpayable",
      "type": "function"
    },
    {
      "inputs": [],
      "name": "vusdToken",
      "outputs": [
        {
          "internalType": "address",
          "name": "",
          "type": "address"
        }
      ],
      "stateMutability": "view",
      "type": "function"
    }
  ],
  "bytecode": "0x6080604052348015600e575f5ffd5b50335f5f6101000a81548173ffffffffffffffffffffffffffffffffffffffff021916908373ffffffffffffffffffffffffffffffffffffffff1602179055506120168061005b5f395ff3fe608060405234801561000f575f5ffd5b50600436106100cd575f3560e01c80638a2f62ed1161008a578063997e686111610064578063997e6861146101d5578063b4d975e9146101f1578063e7bf78c61461020d578063fc73c86e14610229576100cd565b80638a2f62ed146101915780638da5cb5b146101ad5780638f391893146101cb576100cd565b80631bc92162146100d15780634959ae42146100ef578063738bf2491461010b5780637727d6f2146101275780637c487cd414610145578063880cdc3114610175575b5f5ffd5b6100d9610259565b6040516100e69190611864565b60405180910390f35b610109600480360381019061010491906118ab565b61025f565b005b61012560048036038101906101209190611909565b61053d565b005b61012f61087a565b60405161013c9190611864565b60405180910390f35b61015f600480360381019061015a91906118ab565b61089f565b60405161016c9190611968565b60405180910390f35b61018f600480360381019061018a91906118ab565b6108e8565b005b6101ab60048036038101906101a69190611909565b610a8e565b005b6101b5610c66565b6040516101c29190611864565b60405180910390f35b6101d3610c8a565b005b6101ef60048036038101906101ea9190611981565b610fca565b005b61020b600480360381019061020691906118ab565b611089565b005b610227600480360381019061022291906119ac565b611231565b005b610243600480360381019061023e91906118ab565b611485565b6040516102509190611b42565b60405180910390f35b61016781565b5f5f9054906101000a900473ffffffffffffffffffffffffffffffffffffffff1673ffffffffffffffffffffffffffffffffffffffff163373ffffffffffffffffffffffffffffffffffffffff16146102e4576040517fea8e4eb500000000000000000000000000000000000000000000000000000000815260040160405180910390fd5b5f73ffffffffffffffffffffffffffffffffffffffff168173ffffffffffffffffffffffffffffffffffffffff1603610352576040517f08c379a000000000000000000000000000000000000000000000000000000000815260040161034990611bbc565b60405180910390fd5b5f5f61016773ffffffffffffffffffffffffffffffffffffffff163084604051602401610380929190611bda565b6040516020818303038152906040527f49146bde000000000000000000000000000000000000000000000000000000007bffffffffffffffffffffffffffffffffffffffffffffffffffffffff19166020820180517bffffffffffffffffffffffffffffffffffffffffffffffffffffffff838183161783525050505060405161040a9190611c53565b5f604051808303815f865af19150503d805f8114610443576040519150601f19603f3d011682016040523d82523d5f602084013e610448565b606091505b50915091508161048d576040517f08c379a000000000000000000000000000000000000000000000000000000000815260040161048490611cb3565b60405180910390fd5b60208151106104f5575f818060200190518101906104ab9190611d07565b905060168160070b146104f3576040517f08c379a00000000000000000000000000000000000000000000000000000000081526004016104ea90611d7c565b60405180910390fd5b505b8273ffffffffffffffffffffffffffffffffffffffff167fbbbf805ef99ca7d0b7d2cc769719f2a281c9b3331a3642efa75a712e3094a16660405160405180910390a2505050565b5f5f9054906101000a900473ffffffffffffffffffffffffffffffffffffffff1673ffffffffffffffffffffffffffffffffffffffff163373ffffffffffffffffffffffffffffffffffffffff16146105c2576040517fea8e4eb500000000000000000000000000000000000000000000000000000000815260040160405180910390fd5b5f73ffffffffffffffffffffffffffffffffffffffff168373ffffffffffffffffffffffffffffffffffffffff16148061062757505f73ffffffffffffffffffffffffffffffffffffffff168273ffffffffffffffffffffffffffffffffffffffff16145b1561065e576040517fe6c4247b00000000000000000000000000000000000000000000000000000000815260040160405180910390fd5b5f8103610697576040517f2c5211c600000000000000000000000000000000000000000000000000000000815260040160405180910390fd5b60025f8473ffffffffffffffffffffffffffffffffffffffff1673ffffffffffffffffffffffffffffffffffffffff1681526020019081526020015f206040518060a001604052808573ffffffffffffffffffffffffffffffffffffffff1681526020018473ffffffffffffffffffffffffffffffffffffffff1681526020018381526020014281526020015f1515815250908060018154018082558091505060019003905f5260205f2090600502015f909190919091505f820151815f015f6101000a81548173ffffffffffffffffffffffffffffffffffffffff021916908373ffffffffffffffffffffffffffffffffffffffff1602179055506020820151816001015f6101000a81548173ffffffffffffffffffffffffffffffffffffffff021916908373ffffffffffffffffffffffffffffffffffffffff16021790555060408201518160020155606082015181600301556080820151816004015f6101000a81548160ff02191690831515021790555050508173ffffffffffffffffffffffffffffffffffffffff168373ffffffffffffffffffffffffffffffffffffffff167f7ac71a0102614c355c81bf82301bd2b44cff8e02673fbfbf59a5f69cb018fb0c834260405161086d929190611d9a565b60405180910390a3505050565b60015f9054906101000a900473ffffffffffffffffffffffffffffffffffffffff1681565b5f60025f8373ffffffffffffffffffffffffffffffffffffffff1673ffffffffffffffffffffffffffffffffffffffff1681526020019081526020015f20805490509050919050565b5f5f9054906101000a900473ffffffffffffffffffffffffffffffffffffffff1673ffffffffffffffffffffffffffffffffffffffff163373ffffffffffffffffffffffffffffffffffffffff161461096d576040517fea8e4eb500000000000000000000000000000000000000000000000000000000815260040160405180910390fd5b5f73ffffffffffffffffffffffffffffffffffffffff168173ffffffffffffffffffffffffffffffffffffffff16036109d2576040517fe6c4247b00000000000000000000000000000000000000000000000000000000815260040160405180910390fd5b8073ffffffffffffffffffffffffffffffffffffffff165f5f9054906101000a900473ffffffffffffffffffffffffffffffffffffffff1673ffffffffffffffffffffffffffffffffffffffff167f8292fce18fa69edf4db7b94ea2e58241df0ae57f97e0a6c9b29067028bf92d7660405160405180910390a3805f5f6101000a81548173ffffffffffffffffffffffffffffffffffffffff021916908373ffffffffffffffffffffffffffffffffffffffff16021790555050565b5f5f9054906101000a900473ffffffffffffffffffffffffffffffffffffffff1673ffffffffffffffffffffffffffffffffffffffff163373ffffffffffffffffffffffffffffffffffffffff1614610b13576040517fea8e4eb500000000000000000000000000000000000000000000000000000000815260040160405180910390fd5b5f73ffffffffffffffffffffffffffffffffffffffff168373ffffffffffffffffffffffffffffffffffffffff161480610b7857505f73ffffffffffffffffffffffffffffffffffffffff168273ffffffffffffffffffffffffffffffffffffffff16145b15610baf576040517fe6c4247b00000000000000000000000000000000000000000000000000000000815260040160405180910390fd5b5f8103610be8576040517f2c5211c600000000000000000000000000000000000000000000000000000000815260040160405180910390fd5b610bfc823085610bf7856115f5565b611640565b8173ffffffffffffffffffffffffffffffffffffffff168373ffffffffffffffffffffffffffffffffffffffff167f484524e7760ab68ae2cfadfef61f0b6665e1a8d9db29dcb0b2f488079595ab4f83604051610c599190611968565b60405180910390a3505050565b5f5f9054906101000a900473ffffffffffffffffffffffffffffffffffffffff1681565b5f5f9054906101000a900473ffffffffffffffffffffffffffffffffffffffff1673ffffffffffffffffffffffffffffffffffffffff163373ffffffffffffffffffffffffffffffffffffffff1614610d0f576040517fea8e4eb500000000000000000000000000000000000000000000000000000000815260040160405180910390fd5b5f73ffffffffffffffffffffffffffffffffffffffff1660015f9054906101000a900473ffffffffffffffffffffffffffffffffffffffff1673ffffffffffffffffffffffffffffffffffffffff1603610d9e576040517f08c379a0000000000000000000000000000000000000000000000000000000008152600401610d9590611e0b565b60405180910390fd5b5f5f61016773ffffffffffffffffffffffffffffffffffffffff163060015f9054906101000a900473ffffffffffffffffffffffffffffffffffffffff16604051602401610ded929190611bda565b6040516020818303038152906040527f49146bde000000000000000000000000000000000000000000000000000000007bffffffffffffffffffffffffffffffffffffffffffffffffffffffff19166020820180517bffffffffffffffffffffffffffffffffffffffffffffffffffffffff8381831617835250505050604051610e779190611c53565b5f604051808303815f865af19150503d805f8114610eb0576040519150601f19603f3d011682016040523d82523d5f602084013e610eb5565b606091505b509150915081610efa576040517f08c379a0000000000000000000000000000000000000000000000000000000008152600401610ef190611e73565b60405180910390fd5b6020815110610f62575f81806020019051810190610f189190611d07565b905060168160070b14610f60576040517f08c379a0000000000000000000000000000000000000000000000000000000008152600401610f5790611d7c565b60405180910390fd5b505b60015f9054906101000a900473ffffffffffffffffffffffffffffffffffffffff1673ffffffffffffffffffffffffffffffffffffffff167f1b2d795211a4532c87001fb1405e9ae5772997e17fbe74541721ade0f4edea5b60405160405180910390a25050565b5f8103611003576040517f2c5211c600000000000000000000000000000000000000000000000000000000815260040160405180910390fd5b61103860015f9054906101000a900473ffffffffffffffffffffffffffffffffffffffff163330611033856115f5565b611640565b3373ffffffffffffffffffffffffffffffffffffffff167fd25ce949bf2d33ecf72d90c08a5dfa39dd5e496b3d5fe948f9758afde675e9d18260405161107e9190611968565b60405180910390a250565b5f5f9054906101000a900473ffffffffffffffffffffffffffffffffffffffff1673ffffffffffffffffffffffffffffffffffffffff163373ffffffffffffffffffffffffffffffffffffffff161461110e576040517fea8e4eb500000000000000000000000000000000000000000000000000000000815260040160405180910390fd5b5f73ffffffffffffffffffffffffffffffffffffffff168173ffffffffffffffffffffffffffffffffffffffff1603611173576040517fe6c4247b00000000000000000000000000000000000000000000000000000000815260040160405180910390fd5b8073ffffffffffffffffffffffffffffffffffffffff1660015f9054906101000a900473ffffffffffffffffffffffffffffffffffffffff1673ffffffffffffffffffffffffffffffffffffffff167f840ae2052d1914ab5e7b526b13adc6902bf3c8c58cfdb3a88105bfcc0872d63560405160405180910390a38060015f6101000a81548173ffffffffffffffffffffffffffffffffffffffff021916908373ffffffffffffffffffffffffffffffffffffffff16021790555050565b5f5f9054906101000a900473ffffffffffffffffffffffffffffffffffffffff1673ffffffffffffffffffffffffffffffffffffffff163373ffffffffffffffffffffffffffffffffffffffff16146112b6576040517fea8e4eb500000000000000000000000000000000000000000000000000000000815260040160405180910390fd5b60025f8473ffffffffffffffffffffffffffffffffffffffff1673ffffffffffffffffffffffffffffffffffffffff1681526020019081526020015f2080549050821061132f576040517f2c5211c600000000000000000000000000000000000000000000000000000000815260040160405180910390fd5b5f60025f8573ffffffffffffffffffffffffffffffffffffffff1673ffffffffffffffffffffffffffffffffffffffff1681526020019081526020015f20838154811061137f5761137e611e91565b5b905f5260205f2090600502019050806004015f9054906101000a900460ff16156113d5576040517f2c5211c600000000000000000000000000000000000000000000000000000000815260040160405180910390fd5b6001816004015f6101000a81548160ff0219169083151502179055505f82111561142f5761142e60015f9054906101000a900473ffffffffffffffffffffffffffffffffffffffff163086611429866115f5565b611640565b5b8373ffffffffffffffffffffffffffffffffffffffff167f468aeeec0e901c52363552a06c1e39331d44c3cc886eb200af127ded3f380f828342604051611477929190611d9a565b60405180910390a250505050565b606060025f8373ffffffffffffffffffffffffffffffffffffffff1673ffffffffffffffffffffffffffffffffffffffff1681526020019081526020015f20805480602002602001604051908101604052809291908181526020015f905b828210156115ea578382905f5260205f2090600502016040518060a00160405290815f82015f9054906101000a900473ffffffffffffffffffffffffffffffffffffffff1673ffffffffffffffffffffffffffffffffffffffff1673ffffffffffffffffffffffffffffffffffffffff168152602001600182015f9054906101000a900473ffffffffffffffffffffffffffffffffffffffff1673ffffffffffffffffffffffffffffffffffffffff1673ffffffffffffffffffffffffffffffffffffffff1681526020016002820154815260200160038201548152602001600482015f9054906101000a900460ff161515151581525050815260200190600101906114e3565b505050509050919050565b5f677fffffffffffffff821115611638576040517f7db3aba700000000000000000000000000000000000000000000000000000000815260040160405180910390fd5b819050919050565b5f5f61016773ffffffffffffffffffffffffffffffffffffffff16868686866040516024016116729493929190611ecd565b6040516020818303038152906040527feca36917000000000000000000000000000000000000000000000000000000007bffffffffffffffffffffffffffffffffffffffffffffffffffffffff19166020820180517bffffffffffffffffffffffffffffffffffffffffffffffffffffffff83818316178352505050506040516116fc9190611c53565b5f604051808303815f865af19150503d805f8114611735576040519150601f19603f3d011682016040523d82523d5f602084013e61173a565b606091505b50915091508161177f576040517f08c379a000000000000000000000000000000000000000000000000000000000815260040161177690611f5a565b60405180910390fd5b60208151106117eb575f8180602001905181019061179d9190611d07565b905060168160070b146117e5576040517f08c379a00000000000000000000000000000000000000000000000000000000081526004016117dc90611fc2565b60405180910390fd5b5061181d565b6040517fe3fbc77100000000000000000000000000000000000000000000000000000000815260040160405180910390fd5b505050505050565b5f73ffffffffffffffffffffffffffffffffffffffff82169050919050565b5f61184e82611825565b9050919050565b61185e81611844565b82525050565b5f6020820190506118775f830184611855565b92915050565b5f5ffd5b61188a81611844565b8114611894575f5ffd5b50565b5f813590506118a581611881565b92915050565b5f602082840312156118c0576118bf61187d565b5b5f6118cd84828501611897565b91505092915050565b5f819050919050565b6118e8816118d6565b81146118f2575f5ffd5b50565b5f81359050611903816118df565b92915050565b5f5f5f606084860312156119205761191f61187d565b5b5f61192d86828701611897565b935050602061193e86828701611897565b925050604061194f868287016118f5565b9150509250925092565b611962816118d6565b82525050565b5f60208201905061197b5f830184611959565b92915050565b5f602082840312156119965761199561187d565b5b5f6119a3848285016118f5565b91505092915050565b5f5f5f606084860312156119c3576119c261187d565b5b5f6119d086828701611897565b93505060206119e1868287016118f5565b92505060406119f2868287016118f5565b9150509250925092565b5f81519050919050565b5f82825260208201905092915050565b5f819050602082019050919050565b611a2e81611844565b82525050565b611a3d816118d6565b82525050565b5f8115159050919050565b611a5781611a43565b82525050565b60a082015f820151611a715f850182611a25565b506020820151611a846020850182611a25565b506040820151611a976040850182611a34565b506060820151611aaa6060850182611a34565b506080820151611abd6080850182611a4e565b50505050565b5f611ace8383611a5d565b60a08301905092915050565b5f602082019050919050565b5f611af0826119fc565b611afa8185611a06565b9350611b0583611a16565b805f5b83811015611b35578151611b1c8882611ac3565b9750611b2783611ada565b925050600181019050611b08565b5085935050505092915050565b5f6020820190508181035f830152611b5a8184611ae6565b905092915050565b5f82825260208201905092915050565b7f496e76616c696420746f6b656e000000000000000000000000000000000000005f82015250565b5f611ba6600d83611b62565b9150611bb182611b72565b602082019050919050565b5f6020820190508181035f830152611bd381611b9a565b9050919050565b5f604082019050611bed5f830185611855565b611bfa6020830184611855565b9392505050565b5f81519050919050565b5f81905092915050565b8281835e5f83830152505050565b5f611c2d82611c01565b611c378185611c0b565b9350611c47818560208601611c15565b80840191505092915050565b5f611c5e8284611c23565b915081905092915050565b7f6173736f63696174652063616c6c206661696c656400000000000000000000005f82015250565b5f611c9d601583611b62565b9150611ca882611c69565b602082019050919050565b5f6020820190508181035f830152611cca81611c91565b9050919050565b5f8160070b9050919050565b611ce681611cd1565b8114611cf0575f5ffd5b50565b5f81519050611d0181611cdd565b92915050565b5f60208284031215611d1c57611d1b61187d565b5b5f611d2984828501611cf3565b91505092915050565b7f6173736f636961746520726320213d20535543434553530000000000000000005f82015250565b5f611d66601783611b62565b9150611d7182611d32565b602082019050919050565b5f6020820190508181035f830152611d9381611d5a565b9050919050565b5f604082019050611dad5f830185611959565b611dba6020830184611959565b9392505050565b7f76555344206e6f742073657400000000000000000000000000000000000000005f82015250565b5f611df5600c83611b62565b9150611e0082611dc1565b602082019050919050565b5f6020820190508181035f830152611e2281611de9565b9050919050565b7f6173736f63696174652076555344206661696c656400000000000000000000005f82015250565b5f611e5d601583611b62565b9150611e6882611e29565b602082019050919050565b5f6020820190508181035f830152611e8a81611e51565b9050919050565b7f4e487b71000000000000000000000000000000000000000000000000000000005f52603260045260245ffd5b611ec781611cd1565b82525050565b5f608082019050611ee05f830187611855565b611eed6020830186611855565b611efa6040830185611855565b611f076060830184611ebe565b95945050505050565b7f687473207472616e736665722063616c6c206661696c656400000000000000005f82015250565b5f611f44601883611b62565b9150611f4f82611f10565b602082019050919050565b5f6020820190508181035f830152611f7181611f38565b9050919050565b7f687473207472616e7366657220726320213d20535543434553530000000000005f82015250565b5f611fac601a83611b62565b9150611fb782611f78565b602082019050919050565b5f6020820190508181035f830152611fd981611fa0565b905091905056fea26469706673582212203eaf5c2085f93d5197966ea264b010f654d169125d88dcac83ffcbeb53a52a1764736f6c634300081c0033",
  "linkReferences": {},
  "deployedLinkReferences": {},
  "immutableReferences": {},
  "inputSourceName": "project/contracts/VoltEscrow.sol",
  "buildInfoId": "solc-0_8_28-5fd9e488b70d5bae928ac505895240324e9ade46"
}